{"abi":[{"type":"constructor","inputs":[{"name":"oracleAddr","type":"address","internalType":"address"}],"stateMutability":"nonpayable"},{"type":"function","name":"onResult","inputs":[{"name":"result","type":"tuple","internalType":"struct OdfResponse.Res","components":[{"name":"_requestId","type":"uint64","internalType":"uint64"},{"name":"_data","type":"tuple[]","internalType":"struct WitnetCBOR.CBOR[]","components":[{"name":"buffer","type":"tuple","internalType":"struct WitnetBuffer.Buffer","components":[{"name":"data","type":"bytes","internalType":"bytes"},{"name":"cursor","type":"uint256","internalType":"uint256"}]},{"name":"initialByte","type":"uint8","internalType":"uint8"},{"name":"majorType","type":"uint8","internalType":"uint8"},{"name":"additionalInformation","type":"uint8","internalType":"uint8"},{"name":"len","type":"uint64","internalType":"uint64"},{"name":"tag","type":"uint64","internalType":"uint64"}]}]}],"outputs":[],"stateMutability":"nonpayable"},{"type":"function","name":"province","inputs":[],"outputs":[{"name":"","type":"string","internalType":"string"}],"stateMutability":"view"},{"type":"function","name":"startDistributeRewards","inputs":[],"outputs":[],"stateMutability":"nonpayable"},{"type":"function","name":"totalCases","inputs":[],"outputs":[{"name":"","type":"uint64","internalType":"uint64"}],"stateMutability":"view"},{"type":"error","name":"EmptyBuffer","inputs":[]},{"type":"error","name":"IndexOutOfBounds","inputs":[{"name":"index","type":"uint256","internalType":"uint256"},{"name":"range","type":"uint256","internalType":"uint256"}]},{"type":"error","name":"InvalidLengthEncoding","inputs":[{"name":"length","type":"uint256","internalType":"uint256"}]},{"type":"error","name":"UnexpectedMajorType","inputs":[{"name":"read","type":"uint256","internalType":"uint256"},{"name":"expected","type":"uint256","internalType":"uint256"}]},{"type":"error","name":"UnsupportedMajorType","inputs":[{"name":"unexpected","type":"uint256","internalType":"uint256"}]}],"bytecode":{"object":"0x6080604052348015600f57600080fd5b506040516124fc3803806124fc833981016040819052602c916050565b600080546001600160a01b0319166001600160a01b0392909216919091179055607e565b600060208284031215606157600080fd5b81516001600160a01b0381168114607757600080fd5b9392505050565b61246f8061008d6000396000f3fe608060405234801561001057600080fd5b506004361061004c5760003560e01c806316f446ec146100515780634ce5162f1461005b5780636209cb631461008d57806366b8a821146100a2575b600080fd5b6100596100b5565b005b60025461006f9067ffffffffffffffff1681565b60405167ffffffffffffffff90911681526020015b60405180910390f35b61009561018a565b6040516100849190611b15565b6100596100b0366004611c27565b610218565b60006100bf610300565b90506100e560405180610120016040528060ff815260200161236460ff91398290610333565b6000546040517fb8853b5400000000000000000000000000000000000000000000000000000000815273ffffffffffffffffffffffffffffffffffffffff9091169063b8853b549061014390849030906366b8a82190600401611e77565b6020604051808303816000875af1158015610162573d6000803e3d6000fd5b505050506040513d601f19601f820116820180604052508101906101869190611ed8565b5050565b6001805461019790611ef5565b80601f01602080910402602001604051908101604052809291908181526020018280546101c390611ef5565b80156102105780601f106101e557610100808354040283529160200191610210565b820191906000526020600020905b8154815290600101906020018083116101f357829003601f168201915b505050505081565b60005473ffffffffffffffffffffffffffffffffffffffff16331461023f5761023f611f42565b61024881610373565b67ffffffffffffffff1660011461026157610261611f42565b600061026d828261038d565b90506102928160008151811061028557610285611f71565b60200260200101516103c6565b60019061029f9082611ff0565b506102c3816001815181106102b6576102b6611f71565b6020026020010151610507565b600280547fffffffffffffffffffffffffffffffffffffffffffffffff00000000000000001667ffffffffffffffff929092169190911790555050565b610308611a5a565b60006103156104006105a4565b9050610320816105c5565b6040805160208101909152908152919050565b60408051808201909152600381527f73716c00000000000000000000000000000000000000000000000000000000006020820152825161018691836105e9565b6000600182602001515161038791906120fd565b92915050565b60606103bf83602001518367ffffffffffffffff16815181106103b2576103b2611f71565b6020026020010151610602565b9392505050565b60608160038060ff16826040015160ff16146104255760408083015190517e1000a000000000000000000000000000000000000000000000000000000000815260ff918216600482015290821660248201526044015b60405180910390fd5b610437846000015185606001516108d5565b67ffffffffffffffff16608085018190527fffffffffffffffffffffffffffffffffffffffffffffffff0000000000000001016104ed5760005b806104e757600061048a866000015187604001516109b7565b905067ffffffffffffffff80821610156104dc57846104b56104ad60048461213f565b885190610a9a565b6040516020016104c6929190612166565b60405160208183030381529060405294506104e1565b600191505b50610471565b50610500565b608084015184516104fd91610a9a565b92505b5050919050565b6000816040015160ff1660010361054457600061052c836000015184606001516108d5565b90506103bf67ffffffffffffffff8216600019612195565b816040015160ff1660000361055c5761038782610c3e565b60408083015190517e1000a000000000000000000000000000000000000000000000000000000000815260ff90911660048201526001602482015260440161041c565b919050565b6105ac611a72565b80516105b89083610cbc565b5060006020820152919050565b6105d0816005610d33565b6001816020018181516105e391906121b5565b90525050565b6105f38383610d4a565b6105fd8382610d4a565b505050565b60608160048060ff16826040015160ff161461065c5760408083015190517e1000a000000000000000000000000000000000000000000000000000000000815260ff9182166004820152908216602482015260440161041c565b6000610670856000015186606001516108d5565b905061067d8160016121c8565b67ffffffffffffffff1667ffffffffffffffff81111561069f5761069f611b28565b60405190808252806020026020018201604052801561070f57816020015b6040805161010081018252606060c08201818152600060e0840181905290835260208084018290529383018190529082018190526080820181905260a082015282526000199092019101816106bd5790505b50935060005b8167ffffffffffffffff168110156108a45761073086610d63565b9550610809866040805161010081018252606060c08201818152600060e084018190529083526020830181905292820183905281018290526080810182905260a08101919091526040805160c081018083528451610100830184526060909152600060e0830152825180840190935280518352602090810151908301529081908152602001836020015160ff168152602001836040015160ff168152602001836060015160ff168152602001836080015167ffffffffffffffff1681526020018360a0015167ffffffffffffffff168152509050919050565b85828151811061081b5761081b611f71565b6020026020010181905250600460ff16866040015160ff160361087457600061084387610602565b9050806001825161085491906120fd565b8151811061086457610864611f71565b602002602001015196505061089c565b600560ff16866040015160ff160361089157600061084387610dc4565b61089a866110ea565b505b600101610715565b5084848267ffffffffffffffff16815181106108c2576108c2611f71565b6020026020010181905250505050919050565b600060188260ff1610156108ed575060ff8116610387565b8160ff1660180361090b5761090183611318565b60ff169050610387565b8160ff1660190361092a5761091f83611393565b61ffff169050610387565b8160ff16601a0361094b5761093e83611418565b63ffffffff169050610387565b8160ff16601b036109665761095f83611490565b9050610387565b8160ff16601f03610980575067ffffffffffffffff610387565b6040517f6d785b1300000000000000000000000000000000000000000000000000000000815260ff8316600482015260240161041c565b6000806109c384611318565b90508060ff1660ff036109e15767ffffffffffffffff915050610387565b6109ee8482601f166108d5565b915067ffffffffffffffff80831610610a3f576040517f6d785b1300000000000000000000000000000000000000000000000000000000815267ffffffffffffffff8316600482015260240161041c565b60ff83166007600583901c1614610a93576040517e1000a00000000000000000000000000000000000000000000000000000000081526007600583901c16600482015260ff8416602482015260440161041c565b5092915050565b60608167ffffffffffffffff1667ffffffffffffffff811115610abf57610abf611b28565b6040519080825280601f01601f191660200182016040528015610ae9576020820181803683370190505b50905060005b8267ffffffffffffffff168167ffffffffffffffff161015610c35576000610b1685611318565b90506080811615610bdd5760e08160ff161015610b5257610b3685611318565b603f16600682601f1660ff16901b179050600184039350610bdd565b60f08160ff161015610b9757610b6785611318565b603f166006610b7587611318565b603f1660ff16901b600c83600f1660ff16901b17179050600284039350610bdd565b610ba085611318565b603f166006610bae87611318565b603f16901b600c610bbe88611318565b603f1660ff16901b601284600f1660ff16901b17171790506003840393505b8060f81b838367ffffffffffffffff1681518110610bfd57610bfd611f71565b60200101907effffffffffffffffffffffffffffffffffffffffffffffffffffffffffffff1916908160001a90535050600101610aef565b50908152919050565b60008160008060ff16826040015160ff1614610c985760408083015190517e1000a000000000000000000000000000000000000000000000000000000000815260ff9182166004820152908216602482015260440161041c565b610caa846000015185606001516108d5565b67ffffffffffffffff16949350505050565b604080518082019091526060815260006020820152610cdc6020836121e9565b15610d0457610cec6020836121e9565b610cf79060206120fd565b610d0190836121b5565b91505b602080840183905260405180855260008152908184010181811015610d2857600080fd5b604052509192915050565b81516105fd90601f611fe0600585901b1617611508565b610d578260038351611571565b81516105fd9082611698565b6040805161010081018252606060c08201818152600060e084018190529083526020830181905292820183905281018290526080810182905260a081019190915281518051516020909101511015610dc0578151610387906116b9565b5090565b60608160058060ff16826040015160ff1614610e1e5760408083015190517e1000a000000000000000000000000000000000000000000000000000000000815260ff9182166004820152908216602482015260440161041c565b6000610e32856000015186606001516108d5565b610e3d9060026121fd565b9050610e4a8160016121c8565b67ffffffffffffffff1667ffffffffffffffff811115610e6c57610e6c611b28565b604051908082528060200260200182016040528015610edc57816020015b6040805161010081018252606060c08201818152600060e0840181905290835260208084018290529383018190529082018190526080820181905260a08201528252600019909201910181610e8a5790505b50935060005b8167ffffffffffffffff168110156108a457610efd86610d63565b9550610fd6866040805161010081018252606060c08201818152600060e084018190529083526020830181905292820183905281018290526080810182905260a08101919091526040805160c081018083528451610100830184526060909152600060e0830152825180840190935280518352602090810151908301529081908152602001836020015160ff168152602001836040015160ff168152602001836060015160ff168152602001836080015167ffffffffffffffff1681526020018360a0015167ffffffffffffffff168152509050919050565b858281518110610fe857610fe8611f71565b6020908102919091010152610ffe6002826121e9565b1580156110135750604086015160ff16600314155b1561105b5760408087015190517e1000a000000000000000000000000000000000000000000000000000000000815260ff90911660048201526003602482015260440161041c565b604086015160ff16600414806110785750604086015160ff166005145b156110d757604086015160009060ff1660041461109d5761109887610dc4565b6110a6565b6110a687610602565b905080600182516110b791906120fd565b815181106110c7576110c7611f71565b60200260200101519650506110e2565b6110e0866110ea565b505b600101610ee2565b6040805161010081018252606060c08201818152600060e08401819052908352602083018190528284018190529082018190526080820181905260a08201529082015160ff1615806111435750604082015160ff166001145b8061117c5750604082015160ff16600714801561116857506019826060015160ff1610155b801561117c5750601b826060015160ff1611155b156111b05761118a82611867565b67ffffffffffffffff1682600001516020018181516111a991906121b5565b9052505090565b604082015160ff16600314806111cd5750604082015160ff166002145b156112125760006111e6836000015184606001516108d5565b90508067ffffffffffffffff16836000015160200181815161120891906121b5565b905250610dc09050565b604082015160ff166004148061122f5750604082015160ff166005145b1561125957611246826000015183606001516108d5565b67ffffffffffffffff1660808301525090565b604082015160ff16600714158061128b5750816060015160ff1660141415801561128b5750816060015160ff16601514155b15610dc0576040517f08c379a000000000000000000000000000000000000000000000000000000000815260206004820152602760248201527f5769746e657443424f522e736b69703a20756e737570706f72746564206d616a60448201527f6f72207479706500000000000000000000000000000000000000000000000000606482015260840161041c565b6000816020015182600001515180821115611369576040517f63a056dd000000000000000000000000000000000000000000000000000000008152600481018390526024810182905260440161041c565b835160208501805180830160010151955090819061138682612229565b8152505050505050919050565b6000816020015160026113a691906121b5565b825151808211156113ed576040517f63a056dd000000000000000000000000000000000000000000000000000000008152600481018390526024810182905260440161041c565b835160208501805160028184018101519650909161140b82846121b5565b9052509395945050505050565b60008160200151600461142b91906121b5565b82515180821115611472576040517f63a056dd000000000000000000000000000000000000000000000000000000008152600481018390526024810182905260440161041c565b835160208501805160048184018101519650909161140b82846121b5565b6000816020015160086114a391906121b5565b825151808211156114ea576040517f63a056dd000000000000000000000000000000000000000000000000000000008152600481018390526024810182905260440161041c565b835160208501805160088184018101519650909161140b82846121b5565b604080518082019091526060815260006020820152825151600061152d8260016121b5565b90508460200151821061154e5761154e85611549836002612243565b6118ed565b8451602083820101858153508051821115611567578181525b5093949350505050565b60178167ffffffffffffffff161161159e5782516115989060e0600585901b168317611508565b50505050565b60ff8167ffffffffffffffff16116115e05782516115c7906018611fe0600586901b1617611508565b5082516115989067ffffffffffffffff83166001611904565b61ffff8167ffffffffffffffff161161162357825161160a906019611fe0600586901b1617611508565b5082516115989067ffffffffffffffff83166002611904565b63ffffffff8167ffffffffffffffff161161166857825161164f90601a611fe0600586901b1617611508565b5082516115989067ffffffffffffffff83166004611904565b825161167f90601b611fe0600586901b1617611508565b5082516115989067ffffffffffffffff83166008611904565b6040805180820190915260608152600060208201526103bf83838451611989565b6040805161010081018252606060c08201818152600060e084018190529083526020830181905292820183905281018290526080810182905260a08101919091528151518290600003611738576040517f240db51c00000000000000000000000000000000000000000000000000000000815260040160405180910390fd5b600060ff8167ffffffffffffffff8160015b80156117da5761175989611318565b95508161176581612229565b6007600589901c169650601f881695509250507ffffffffffffffffffffffffffffffffffffffffffffffffffffffffffffffffa85016117d25760208901516117ae8a866108d5565b9350808a602001516117c091906120fd565b6117ca90846121b5565b92505061174a565b50600061174a565b600760ff8616111561181d576040517fbd2ac87900000000000000000000000000000000000000000000000000000000815260ff8616600482015260240161041c565b506040805160c08101825289815260ff96871660208201529486169085015291909316606083015267ffffffffffffffff908116608083015290911660a082015291505b50919050565b60006018826060015160ff16101561188157506000919050565b601c826060015160ff1610156118b057601882606001516118a2919061225a565b60ff166001901b9050919050565b60608201516040517f6d785b1300000000000000000000000000000000000000000000000000000000815260ff909116600482015260240161041c565b81516118f98383610cbc565b506115988382611698565b604080518082019091526060815260006020820152835151600061192882856121b5565b905085602001518111156119455761194586611549836002612243565b6000600161195586610100612357565b61195f91906120fd565b9050865182810187831982511617815250805183111561197d578281525b50959695505050505050565b60408051808201909152606081526000602082015282518211156119ac57600080fd5b83515160006119bb84836121b5565b905085602001518111156119d8576119d886611549836002612243565b8551805183820160200191600091808511156119f2578482525b505050602086015b60208610611a325780518252611a116020836121b5565b9150611a1e6020826121b5565b9050611a2b6020876120fd565b95506119fa565b51815160001960208890036101000a0190811690199190911617905250849150509392505050565b6040518060200160405280611a6d611a72565b905290565b6040518060400160405280611a9a604051806040016040528060608152602001600081525090565b8152602001600081525090565b60005b83811015611ac2578181015183820152602001611aaa565b50506000910152565b60008151808452611ae3816020860160208601611aa7565b601f017fffffffffffffffffffffffffffffffffffffffffffffffffffffffffffffffe0169290920160200192915050565b6020815260006103bf6020830184611acb565b7f4e487b7100000000000000000000000000000000000000000000000000000000600052604160045260246000fd5b6040805190810167ffffffffffffffff81118282101715611b7a57611b7a611b28565b60405290565b60405160c0810167ffffffffffffffff81118282101715611b7a57611b7a611b28565b604051601f82017fffffffffffffffffffffffffffffffffffffffffffffffffffffffffffffffe016810167ffffffffffffffff81118282101715611bea57611bea611b28565b604052919050565b67ffffffffffffffff81168114611c0857600080fd5b50565b803561059f81611bf2565b803560ff8116811461059f57600080fd5b600060208284031215611c3957600080fd5b67ffffffffffffffff8083351115611c5057600080fd5b8235830160408186031215611c6457600080fd5b611c6c611b57565b611c768235611bf2565b813581528260208301351115611c8b57600080fd5b60208201358201915085601f830112611ca357600080fd5b8282351115611cb457611cb4611b28565b611cc46020833560051b01611ba3565b82358082526020808301929160051b850101881015611ce257600080fd5b602084015b6020853560051b860101811015611e67578581351115611d0657600080fd5b803585017fffffffffffffffffffffffffffffffffffffffffffffffffffffffffffffffe060c081838d03011215611d3d57600080fd5b611d45611b80565b8860208401351115611d5657600080fd5b60208301358301604083828f03011215611d6f57600080fd5b611d77611b57565b8a60208301351115611d8857600080fd5b602082013582018e603f820112611d9e57600080fd5b60208101358c811115611db357611db3611b28565b611dc4602087601f84011601611ba3565b95508086528f6040828401011115611ddb57600080fd5b806040830160208801376000602082880101525050838152604082013560208201528083525050611e0e60408401611c16565b6020820152611e1f60608401611c16565b6040820152611e3060808401611c16565b6060820152611e4160a08401611c0b565b6080820152611e5260c08401611c0b565b60a08201528552505060209283019201611ce7565b5060208301525095945050505050565b6040815260008451602060408401528051604060608501528051604060a0860152611ea560e0860182611acb565b60209283015160c08701529282015160808601525094851b63ffffffff949094169390931760401b919093015292915050565b600060208284031215611eea57600080fd5b81516103bf81611bf2565b600181811c90821680611f0957607f821691505b602082108103611861577f4e487b7100000000000000000000000000000000000000000000000000000000600052602260045260246000fd5b7f4e487b7100000000000000000000000000000000000000000000000000000000600052600160045260246000fd5b7f4e487b7100000000000000000000000000000000000000000000000000000000600052603260045260246000fd5b601f8211156105fd576000816000526020600020601f850160051c81016020861015611fc95750805b601f850160051c820191505b81811015611fe857828155600101611fd5565b505050505050565b815167ffffffffffffffff81111561200a5761200a611b28565b61201e816120188454611ef5565b84611fa0565b602080601f831160018114612053576000841561203b5750858301515b600019600386901b1c1916600185901b178555611fe8565b6000858152602081207fffffffffffffffffffffffffffffffffffffffffffffffffffffffffffffffe08616915b828110156120a057888601518255948401946001909101908401612081565b50858210156120be5787850151600019600388901b60f8161c191681555b5050505050600190811b01905550565b7f4e487b7100000000000000000000000000000000000000000000000000000000600052601160045260246000fd5b81810381811115610387576103876120ce565b7f4e487b7100000000000000000000000000000000000000000000000000000000600052601260045260246000fd5b600067ffffffffffffffff8084168061215a5761215a612110565b92169190910492915050565b60008351612178818460208801611aa7565b83519083019061218c818360208801611aa7565b01949350505050565b8181036000831280158383131683831282161715610a9357610a936120ce565b80820180821115610387576103876120ce565b67ffffffffffffffff818116838216019080821115610a9357610a936120ce565b6000826121f8576121f8612110565b500690565b67ffffffffffffffff818116838216028082169190828114612221576122216120ce565b505092915050565b6000600019820361223c5761223c6120ce565b5060010190565b8082028115828204841417610387576103876120ce565b60ff8281168282160390811115610387576103876120ce565b600181815b808511156122ae578160001904821115612294576122946120ce565b808516156122a157918102915b93841c9390800290612278565b509250929050565b6000826122c557506001610387565b816122d257506000610387565b81600181146122e857600281146122f25761230e565b6001915050610387565b60ff841115612303576123036120ce565b50506001821b610387565b5060208310610133831016604e8410600b8410161715612331575081810a610387565b61233b8383612273565b806000190482111561234f5761234f6120ce565b029392505050565b60006103bf83836122b656fe776974682062795f70726f76696365206173202873656c6563742070726f76696e63652c20636f756e74282a2920617320636f756e742066726f6d20276b616d752f636f76696431392e63616e6164612e636173652d64657461696c73272067726f75702062792031292c72616e6b6564206173202873656c65637420726f775f6e756d6265722829206f76657220286f7264657220627920636f756e742064657363292061732072616e6b2c2070726f76696e63652c20636f756e742066726f6d2062795f70726f766963652973656c6563742070726f76696e63652c20636f756e742066726f6d2072616e6b65642077686572652072616e6b203d2031a164736f6c6343000819000a","linkReferences":{}},"methodIdentifiers":{"onResult((uint64,((bytes,uint256),uint8,uint8,uint8,uint64,uint64)[]))":"66b8a821","province()":"6209cb63","startDistributeRewards()":"16f446ec","totalCases()":"4ce5162f"},"id":29}